:020000040000FA
:0600000092EF07F0120070
:020006001200E6
:06000800EAEF01F0120016
:02000E000400EC
:10001000EF1000000F0E000003000000EA100000C7
:100020000A0E000005000000E9100000120E00009A
:1000300001000000720F00000001000077010000C5
:10004000929093989382938081989398939A9292A6
:10005000F19E0F010F0E5B6F5D6BF80E5C6F94905D
:100060009492948494969488949A8F0ED3147009E1
:10007000D36EFC0ED3140009D36E9B8CCA84FC0E85
:10008000CA140009CA6E9D92140ECB6ED58ED59AF5
:10009000D586D59CD588F80ED5140009D56EF28A80
:1000A000F294F28CF28E948CAB8EAC8AAC98A796BC
:1000B000AC84220EAF6EAB88120058DA200EE12617
:1000C00065EC05F078D9A5EC05F075D9E66AE66A25
:1000D000E66AFFD8E552E552E552070EDB6A080EE4
:1000E000DB6A63DA95DA01E654DA09E20CDAEE6AE1
:1000F000ED6A030EDB2A040EF5E3DB2AF3D79D0E2F
:10010000E66E0E0E10DA819A8198817A27DA000164
:10011000420E606F070EDBCF14F0080EDBCF15F038
:10012000010E1424616F69DA27E0890EE66E0E0E67
:10013000FAD9818A4EDA070EDBCF0DF0080E3EDACF
:10014000010EEE6EED6A070EDB68080EDB682DDA35
:100150005FDA01E61EDA10E2D6D9EE50ED1006E1C4
:10016000030EDBCF08F0040E0BDA06D0030EDB2AF9
:10017000040EEEE3DB2AECD718DA4ADA01E609DAF4
:1001800001E383D0C0D9EE50ED1001E177D0DFD983
:10019000010E1424E66EABEC05F0E552D8D9010E41
:1001A0001424E66E1FDA819828DA13E0ACD9010E28
:1001B000EE6EED6AAFD91CDA050EEF6EABD9010E0B
:1001C000B8D9050EEF6EA6D9020EB3D9050EEF6EA3
:1001D00055D099D9EE2A000EEF22D950090F166E8C
:1001E000DACF17F0020E086E096A030E15DA165000
:1001F0000624E96E17500720EA6EEECF14F0EFCF19
:1002000015F0153417E214500308000E155412E2CD
:10021000730EE66E0E0E87D976D9EE6AED6A7AD93C
:10022000E7D9EF6A77D9010E84D9EF6A73D9020E44
:1002300080D9EF6A050EDB6A060EDB6A050EDBCF9E
:1002400014F0060EDBCF15F0D890155001E6A1D9B9
:1002500015E2BFD9050EDBCF0DF0060EAFD9EE507B
:10026000ED1006E1050EDBCF08F0060E89D906D0A9
:10027000050EDB2A060EE2E3DB2AE0D7030EDB2ABB
:10028000040E01E27AD7DB2A78D7F3D83ED71200E2
:100290006DD9040EE12665EC05F08DD8A2EC05F0D1
:1002A0005DD90001806B420E0001805D02E0ABD998
:1002B000FAD781C0E6FFABEC05F0E55281C0E6FF5E
:1002C00091D9A1D9E8B08188E8B0FBD78198F9D756
:1002D00012004CD9E652DF6ADF6ADFCF14F07D0EE0
:1002E000E76E1418E8AE02D0E73402D0E750145C91
:1002F0000FE2FC0EDBCFE6FFFD0EDBCFE6FFFE0ECE
:10030000DBCFE6FFDFCFE6FF05D835D9DF2AE5D71B
:10031000E55250D12BD9020EE126FE0EDB50030D23
:10032000F3CFDEFFF4CFDDFFDECFE9FFDDCFEAFF65
:100330005FD9FC0E33D9010EFCD8FD0E2FD9020E69
:10034000F8D8FB0EDBCFEFFF020EE15C02E2E16AC0
:10035000E552E16E2FD10AD96D0EE66E0E0EE3D88E
:10036000FE0EDBCFE6FF5DEC04F0E5526B0EE66EB1
:100370000E0ED9D8FE0EDBAC04D0670EE66E0E0E64
:10038000D2D8FE0EDBAA04D0630EE66E0E0ECBD8DA
:10039000FE0EDBA804D05F0EE66E0E0EC4D8FE0E75
:1003A000DBA004D05A0EE66E0E0EBDD86B0EE66EC4
:1003B0000E0EB9D8FFD0FE0EE66E55EC07F0E552F2
:1003C000120081A002D079DEFCD762DFFAD738DED6
:1003D000F8DFFFD7DACFE4FFE2CFDAFFE9CFE4FFBF
:1003E000EACFE4FFF6CFE4FFF7CFE4FFF5CFE4FF79
:1003F000F3CFE4FFF4CFE4FFFACFE4FF00EE00F028
:10040000140EE80403E3EECFE4FFFBD700EE14F094
:10041000040EE80403E3EECFE4FFFBD7E65281A02D
:1004200002D035DF01D054DFF294E55200EE17F030
:10043000040EE80403E3E5CFEDFFFBD700EE13F075
:10044000140EE80403E3E5CFEDFFFBD7E5CFFAFF99
:10045000E5CFF4FFE5CFF3FFE5CFF5FFE5CFF7FFFD
:10046000E5CFF6FFE5CFEAFFE5CFE9FFE5CFDAFF1D
:100470001100D9CFE6FFE1CFD9FFE652F250800B51
:1004800001E0010EDF6EF29E9E8201EE00F0EE5062
:100490003D6E7D0E3A6E030E3B6E080E3C6E9EA2C4
:1004A000FED780809E923D360EE280903C06F7E1BA
:1004B000EE503D6E080E3C6E3B06F1E1030E3B6EC6
:1004C0003A06EDE112D0000000000000000000003C
:1004D00080903C06E4E1EE503D6E080E3C6E3B061B
:1004E000DEE1030E3B6E3A06DAE18090870EFF0FE5
:1004F000FEE1DF50E8B0F28EE8A0F29EE552E55250
:10050000E7CFD9FF120065D8030EDBCF0DF0040E44
:10051000DEEF02F0030E086E096A7ED806C0E9FF1E
:1005200007C0EAFF1200E66E5EEC03F0E552E5520A
:100530001200E926000EEA22F8EF02F0800EE66EC5
:10054000000EE66E600EE66E000EE66E1200030E02
:10055000DBCF14F0040EDBCF15F012002CDFE66ABF
:10056000ABEC05F0E552E66AF2EF02F0D9CFE6FF18
:10057000E1CFD9FF1200E552E552E552E5521200F3
:10058000DBCF09F0070E08C0DBFF080E09C0DBFF58
:1005900012000A0E145C000E15581200DBCFEFFF9C
:1005A000DECFE9FFDDCFEAFF1200030EDB6A040EA7
:1005B000DB6A1200E552E7CFD9FF1200DBCF0EF065
:1005C000DEEC06F014500624E96E15500720EA6EA2
:1005D0001200D950090F146EDACF15F0020E086E12
:1005E000096A1200E66AB4EC05F0E552E552120021
:1005F000000EE926010EEA221200A0DFE1EC04F071
:10060000BADF000912009ADF22EC05F0BBEF02F01E
:100610009EDFD89015501200DBCF0DF0040EDBCF1B
:060620000EF0DEEF06F013
:0A062600948CAB8EAC8AAC98A796BA
:10063000AC94670EAF6E12007BD97C0EA9D178D92D
:10064000FE0EA6D175D9FD0EDBCFE6FFFE0EDB5008
:10065000100DF350E552E7240E01126FFD0EDBCFB3
:10066000E6FFFE0EDB50400DF350800FE552E7240D
:10067000E66EE5DF5BD15CD9FE0EDBCF14F0800EB9
:100680001424E66ED9DF52D1010EE66ED8DFE552B2
:100690001200D9CFE6FFE1CFD9FFACB202D0000003
:1006A000FCD7FE0EDB50AD6EE552E7CFD9FF12004E
:1006B0003FD90E01122B46D9ECDF38D139D9FD0EC6
:1006C000DBCFF6FFFE0EDBCFF7FF0800F5500FE0A3
:1006D000FD0EDBCFF6FFDB2AFE0EDBCFF7FF01E3DB
:1006E000DB2A0800F550E66EE3DFE552E8D756D185
:1006F0001FD90A0EF36EFE0EDBCFF4FFF350F45C4D
:1007000005E3FE0EDB50410FF60F03D0FE0EDB506B
:10071000300FE66ECDDF0AD10BD90B0EE126020EAB
:10072000DB6AFC0EDB5002E1DF500BE1FC0EDB501C
:100730002EE0080EF36E020EDBCFF4FFF350F45CF4
:1007400026E2FD0EDBCF14F014C00EF0FE0EDBCF60
:1007500009F0A0EC07F00950DF6EFE0EDBCFE6FFDC
:10076000FD0EDB50DF02F350E552E75CE76E010E51
:10077000E7CFDBFFFE0EDFCFDBFFE8D8DBCFF3FFF9
:10078000DB2AF350EAD8010EDBCFEFFFCAD7020E07
:10079000DB5009E0DBD8DB06DB50DFD8EF50E66E3C
:1007A000A7DFE552F4D70B0EE15C02E2E16AE55205
:1007B000E16EF4D0BDD8140EE126030EDB6AFD0E07
:1007C000DBCF08F0FE0EDBCF09F0FB0EDBCF0DF028
:1007D000FC0EDBCF0EF06CEC07F008C0DEFF09C0AA
:1007E000DDFFFD0EDBCF16F0FE0EDBCF17F0FB0EAC
:1007F000DBCF08F0FC0EDBCF09F0DECF0DF0DDCF54
:100800000EF00BEC07F00650165C146E07501758EC
:10081000020E14C0DBFFD9CFE9FFDACFEAFFFD0EED
:10082000EECFDBFFFE0EEDCFDBFF9ED8DBCFF3FF7D
:10083000DB2AF350166E176A16BE17689CD8020E94
:10084000DBCFEFFFD9CFE9FFDACFEAFFEE50ED10B3
:10085000B6E1030EDB500DE087D8DB06DBCF16F0E8
:10086000176A16BE176887D8EF50E66E41DFE5526B
:10087000F0D7140EE15C02E2E16AE552E16E8ED03F
:1008800057D8E66A0A0E7ED053D80A0EE66EE66A9C
:10089000FD0EDBCFE6FF56D88DDFE552E552E5527F
:1008A00045D046D8570EE66E0E0E47D8E66A100EB3
:1008B00069D078D8E66A020E65D074D8010EE66E6B
:1008C000020E60D035D8E652200E0E01D8801255A7
:1008D000FF0FDF6EDF50DF06146EE83405E2520EC4
:1008E000E66E0E0E2AD8F6D70E01126B1FD020D856
:1008F000E652100E0E01D8801255FF0FDF6E100E5B
:10090000E76E1219E8AE02D0E73402D0E750125D6C
:100910000CE2DF50DF06146EE83407E2520EE66E9A
:100920000E0E0BD80E01122BF4D700D0E55236D0A4
:10093000D9CFE6FFE1CFD9FF1200E66EBFDEE55268
:10094000E5521200FE0EDBCFE6FF1200D950030F76
:10095000146EDACF15F0020E12000F011424E96EA6
:10096000000EDA20EA6E1200D950040F146EDACFAE
:1009700015F0030E120014501624E96E15501720BE
:10098000EA6E1200E66EDEDFC7DEE552E552CED734
:10099000E66E7FDEE552D6DF7CDEC8D7E552E7CFD4
:1009A000D9FF1200C5DF540EE66E0E0E9DEF04F067
:1009B0004AD9E6528292C968C7A0FED7C950DF6EF5
:1009C0009FD141D9030EE1269FD9F2DFDF6EDFCF41
:1009D000E6FF270E2CD9200E73D9A00E2DD98280C8
:1009E000010EDB6A020EDB6A010EDBCF14F0020E91
:1009F000DBCF15F0D890155004E6D00E145C070E2E
:100A0000155806E2010EDB2A020EEEE3DB2AECD7D4
:100A10008290CEDFDF6EDFAC0BD0400EE66E270E8D
:100A200006D9020E1FD9E66AE20E01D9010E01D0E5
:100A3000000E146E030EE15C02E2E16AE552E16E23
:100A4000145006D100D9040EE1265ED9020E38D921
:100A5000A80EF2D8E66AA7D8E552E76E020EE7CFF5
:100A6000DBFFA6DFDF6E1AD9400EDF1404E1010EB2
:100A7000DB50010B20E1030EDB6A030EDBCFF3FF3B
:100A8000DB2AF350146E040EE76EF318E8AE02D0C2
:100A9000E73402D0E750145C08E2010EDB50010B92
:100AA00004E1200EDFD8FAD8E8D7400EE66E270E14
:100AB000BED8010E01D0000E146E040EE15C02E2FD
:100AC000E16AE552E16E1450C3D0BDD8E652C76A60
:100AD000C78C220EC66EC698C68A82808282829099
:100AE000D0D8300EA9D8CDD82A0EA6D8730EE66E6F
:100AF000500E9DD8060EE66E3D0E0AD93C0E08D962
:100B0000210E06D9220E93D8280EE66E250E8FD818
:100B1000200EE66E310E8BD8070EE66E260E87D8B5
:100B2000B7D8E66AE20E83D8EFD8D850E66E3BD845
:100B3000E552DF6EDFCFE6FF200ED82478D8828022
:100B4000E55286D082900F0ECAD082900E0EC7D08A
:100B500082900C0EC4D077D882909AD8FE0EDBCF4C
:100B60000BFE8FD8300EC8D06ED8829091D8FD0E73
:100B7000DBCF0BFE86D8FE0EDB502A0FBDD063D82C
:100B8000FE0EDB50C96EC7A0FED7FE0EC9CFDBFF3D
:100B9000DB505ED058D8E6525FD8DF6EFD0EDBCF5B
:100BA000E6FFBAD8ADD04FD8E65256D8E66AB4D8E8
:100BB000DF6EA6D099D87BD811E2E668ADD8E66E94
:100BC000010EDB50E76E84D8E750E926000EEA22DA
:100BD000E552E750EF6E010EDB2AEDD78282DF503F
:100BE000146E020EE15C02E2E16AE552E16E14501D
:100BF0002FD07AD85CD810E26BD8EF50E66E8CD844
:100C0000FC0EDBCFE9FFDB2AFD0EDBCFEAFF01E3C1
:100C1000DB2A010EDB2AEED78282DF50146E020E31
:100C2000E15C02E2E16AE552E16E145011D0E66E39
:100C3000B1DFE552E5521200E66EDBDFE552E55228
:100C4000E552E5521200D9CFE6FFE1CFD9FF1200FD
:100C5000E552E7CFD9FF12008292FE0EDBCFE6FF0E
:100C60008CEF06F0E66EFB0EDBCFE6FFFC0EDBCF73
:100C7000E6FF610EE66E9EDFE552E552E552E55273
:100C80001200050EE66E0A0EE66E0E0EE66E1200FD
:100C9000030EE66EAEEC07F0E5521200170EE66E9C
:100CA00082DFE552E76E010EE7CFDBFF1200FB0E9D
:100CB000DB50F36E010EDBCFF4FFF350F45C120057
:100CC000E66EFD0EDBCFE6FFFE0EDBCFE6FF120089
:100CD000FC0EDBCFE9FFFD0EDBCFEAFF1200E66E74
:100CE000200EA5DF82801200AEDF020EE126B4DF07
:100CF000DF6E010EDB6A12009FDFCADF8280A8D799
:100D00008282DF50E552A4D7E66AE10E17EF06F0C3
:0E0D10008EDF010EE66E120032DFE552120099
:020D1E000E0EB7
:100D2000F66E000EF76E000EF86E0E010900F5501B
:100D3000056F0900F550066F03E1056701D03DD04E
:100D40000900F550006F0900F550016F0900F550DA
:100D5000026F09000900F550E96E0900F550EA6ECE
:100D6000090009000900F550036F0900F550046FF0
:100D700009000900F6CF07FEF7CF08FEF8CF09FEFD
:100D800000CEF6FF01CEF7FF02CEF8FF0E010353AF
:100D900002E1045307E00900F550EE6E0307F8E2A4
:100DA0000407F9D707CEF6FF08CEF7FF09CEF8FF04
:0C0DB0000E010507000E065BBFD7120005
:040DBC0009C013F067
:100DC00008C012F008500D02F4CF07F0F3CF06F080
:100DD00009500E02F4CF09F0F3CF08F00D02F350E2
:100DE0000726F4500822E86A092212500E02F35036
:100DF0000726F4500822E86A09220EAE04EF07F035
:100E00001250085E1350095A13AE000C0D50085EC4
:100E10000E50095A000C08C012F008500D02F4CF11
:100E200007F0F3CF06F009500E02F4CF09F0F3CF2C
:100E300008F00D02F3500726F4500822E86A092250
:100E400012500E02F3500726F4500822E86A0922D5
:020E5000000C94
:0E0E52002000306200307800545846200052D4
:100E600054200044532000445220000A007374614F
:100E7000743A00436C69656E7420446973636F6EE5
:100E80006E6563746564210A000A436C69656E745B
:100E900020436F6E6E6563746564210A000A4C6FAF
:0A0EA0006F702053746172740A0031
:060EAA00FF0EE350196E7B
:100EB000EF0E01D0F30EE76EE72E5CEF07F00C0E9D
:100EC000186EE76AE72E62EF07F0182E61EF07F061
:080ED000192E5AEF07F0120081
:080ED800056A046A100EE76EC2
:100EE000D89008360936043605360D50045C0E508D
:100EF000055805E30D50045E0E50055A082AE72EEA
:040F0000F0D7120014
:0C0F0400410EF36E00EE00F00E0E01D85E
:100F10001200EA6002D0EE6AFCD7F350E9601200DA
:040F2000EE6AFCD7A2
:0C0F24001DEE00F02DEE00F0F86A019CBC
:100F30008FEC06F003EC00F0E7EC01F0FBD71200B9
:100F4000056A080EE76ED890093605360E50055C26
:0C0F500002E3056E092AE72EF7D7120015
:040F5C00FF0EE35051
:100F6000E84E1200000000D000D000D0E82EFAD7E2
:020F700012006D
:0E0F72000A0000000A0000000A0A0A0A000035
:100F80000A000A000A00000A0A0A000A000A000011
:100F900000000A0A0A0A0000000000000000000029
:100FA0000000000000000000000000000000000041
:100FB0000000000000000000000000000000000031
:100FC0000000000000000000000000000000000021
:100FD0000000000000000000000000000000000011
:100FE0000000000000000000000000000000000001
:100FF00000000000000000000000000000000000F1
:1010000000000000000000000000000000000000E0
:1010100000000000000000000000000000000000D0
:1010200000000000000000000000000000000000C0
:1010300000000000000000000000000000000000B0
:1010400000000000000000000000000000000000A0
:101050000000000000000000000000000000000090
:101060000000000000000000000000000000000080
:101070000000000000000000000000000000000070
:101080000000000000000000000000000000000060
:101090000000000000000000000000000000000050
:1010A0000000000000000000000000000000000040
:1010B0000000000000000000000000000000000030
:1010C0000000000000000000000000000000000020
:1010D0000000000000000000000000000000000010
:0910E00000000000000000000007
:0110E9000006
:0510EA0034431010006A
:0110EF000000
:0210F0000000FE
:020000040030CA
:0100000015EA
:0100010018E6
:010002007F7E
:010003007F7D
:010005008971
:010006009168
:010008000FE8
:01000900C036
:01000A000FE6
:01000B00E014
:01000C000FE4
:01000D0040B2
:00000001FF
